{
  "contractName": "CRCCC",
  "abi": [
    {
      "constant": true,
      "inputs": [],
      "name": "name",
      "outputs": [
        {
          "name": "",
          "type": "string"
        }
      ],
      "payable": false,
      "stateMutability": "view",
      "type": "function"
    },
    {
      "constant": false,
      "inputs": [
        {
          "name": "spender",
          "type": "address"
        },
        {
          "name": "value",
          "type": "uint256"
        }
      ],
      "name": "approve",
      "outputs": [
        {
          "name": "",
          "type": "bool"
        }
      ],
      "payable": false,
      "stateMutability": "nonpayable",
      "type": "function"
    },
    {
      "constant": true,
      "inputs": [],
      "name": "totalSupply",
      "outputs": [
        {
          "name": "",
          "type": "uint256"
        }
      ],
      "payable": false,
      "stateMutability": "view",
      "type": "function"
    },
    {
      "constant": false,
      "inputs": [
        {
          "name": "from",
          "type": "address"
        },
        {
          "name": "to",
          "type": "address"
        },
        {
          "name": "value",
          "type": "uint256"
        }
      ],
      "name": "transferFrom",
      "outputs": [
        {
          "name": "",
          "type": "bool"
        }
      ],
      "payable": false,
      "stateMutability": "nonpayable",
      "type": "function"
    },
    {
      "constant": true,
      "inputs": [],
      "name": "decimals",
      "outputs": [
        {
          "name": "",
          "type": "uint8"
        }
      ],
      "payable": false,
      "stateMutability": "view",
      "type": "function"
    },
    {
      "constant": false,
      "inputs": [
        {
          "name": "spender",
          "type": "address"
        },
        {
          "name": "addedValue",
          "type": "uint256"
        }
      ],
      "name": "increaseAllowance",
      "outputs": [
        {
          "name": "",
          "type": "bool"
        }
      ],
      "payable": false,
      "stateMutability": "nonpayable",
      "type": "function"
    },
    {
      "constant": true,
      "inputs": [
        {
          "name": "owner",
          "type": "address"
        }
      ],
      "name": "balanceOf",
      "outputs": [
        {
          "name": "",
          "type": "uint256"
        }
      ],
      "payable": false,
      "stateMutability": "view",
      "type": "function"
    },
    {
      "constant": true,
      "inputs": [],
      "name": "symbol",
      "outputs": [
        {
          "name": "",
          "type": "string"
        }
      ],
      "payable": false,
      "stateMutability": "view",
      "type": "function"
    },
    {
      "constant": false,
      "inputs": [
        {
          "name": "spender",
          "type": "address"
        },
        {
          "name": "subtractedValue",
          "type": "uint256"
        }
      ],
      "name": "decreaseAllowance",
      "outputs": [
        {
          "name": "",
          "type": "bool"
        }
      ],
      "payable": false,
      "stateMutability": "nonpayable",
      "type": "function"
    },
    {
      "constant": false,
      "inputs": [
        {
          "name": "to",
          "type": "address"
        },
        {
          "name": "value",
          "type": "uint256"
        }
      ],
      "name": "transfer",
      "outputs": [
        {
          "name": "",
          "type": "bool"
        }
      ],
      "payable": false,
      "stateMutability": "nonpayable",
      "type": "function"
    },
    {
      "constant": true,
      "inputs": [
        {
          "name": "owner",
          "type": "address"
        },
        {
          "name": "spender",
          "type": "address"
        }
      ],
      "name": "allowance",
      "outputs": [
        {
          "name": "",
          "type": "uint256"
        }
      ],
      "payable": false,
      "stateMutability": "view",
      "type": "function"
    },
    {
      "inputs": [],
      "payable": false,
      "stateMutability": "nonpayable",
      "type": "constructor"
    },
    {
      "anonymous": false,
      "inputs": [
        {
          "indexed": true,
          "name": "from",
          "type": "address"
        },
        {
          "indexed": true,
          "name": "to",
          "type": "address"
        },
        {
          "indexed": false,
          "name": "value",
          "type": "uint256"
        }
      ],
      "name": "Transfer",
      "type": "event"
    },
    {
      "anonymous": false,
      "inputs": [
        {
          "indexed": true,
          "name": "owner",
          "type": "address"
        },
        {
          "indexed": true,
          "name": "spender",
          "type": "address"
        },
        {
          "indexed": false,
          "name": "value",
          "type": "uint256"
        }
      ],
      "name": "Approval",
      "type": "event"
    },
    {
      "constant": false,
      "inputs": [
        {
          "name": "name",
          "type": "string"
        }
      ],
      "name": "registerNewStudent",
      "outputs": [
        {
          "name": "",
          "type": "bool"
        }
      ],
      "payable": false,
      "stateMutability": "nonpayable",
      "type": "function"
    },
    {
      "constant": false,
      "inputs": [
        {
          "name": "vendorID",
          "type": "string"
        }
      ],
      "name": "spawnNewRegister",
      "outputs": [
        {
          "name": "",
          "type": "bool"
        }
      ],
      "payable": true,
      "stateMutability": "payable",
      "type": "function"
    },
    {
      "constant": true,
      "inputs": [
        {
          "name": "vendorId",
          "type": "string"
        },
        {
          "name": "itemName",
          "type": "string"
        }
      ],
      "name": "viewPrice",
      "outputs": [
        {
          "name": "price",
          "type": "uint256"
        }
      ],
      "payable": false,
      "stateMutability": "view",
      "type": "function"
    },
    {
      "constant": false,
      "inputs": [
        {
          "name": "vendorID",
          "type": "string"
        },
        {
          "name": "itemName",
          "type": "string"
        }
      ],
      "name": "purchaseItem",
      "outputs": [
        {
          "name": "",
          "type": "bool"
        }
      ],
      "payable": false,
      "stateMutability": "nonpayable",
      "type": "function"
    },
    {
      "constant": false,
      "inputs": [
        {
          "name": "vendorID",
          "type": "string"
        }
      ],
      "name": "closeRegister",
      "outputs": [
        {
          "name": "",
          "type": "bool"
        }
      ],
      "payable": false,
      "stateMutability": "nonpayable",
      "type": "function"
    },
    {
      "constant": true,
      "inputs": [
        {
          "name": "vendorID",
          "type": "string"
        }
      ],
      "name": "viewRegisterReport",
      "outputs": [
        {
          "name": "",
          "type": "string"
        }
      ],
      "payable": false,
      "stateMutability": "view",
      "type": "function"
    },
    {
      "constant": true,
      "inputs": [],
      "name": "getUserName",
      "outputs": [
        {
          "name": "",
          "type": "string"
        }
      ],
      "payable": false,
      "stateMutability": "view",
      "type": "function"
    },
    {
      "constant": true,
      "inputs": [
        {
          "name": "vendorID",
          "type": "string"
        }
      ],
      "name": "viewRegisterAddress",
      "outputs": [
        {
          "name": "",
          "type": "address"
        }
      ],
      "payable": false,
      "stateMutability": "view",
      "type": "function"
    },
    {
      "constant": true,
      "inputs": [
        {
          "name": "vendorID",
          "type": "string"
        }
      ],
      "name": "viewRegisterBalance",
      "outputs": [
        {
          "name": "",
          "type": "uint256"
        }
      ],
      "payable": false,
      "stateMutability": "view",
      "type": "function"
    }
  ],
  "bytecode": "0x60806040523480156200001157600080fd5b50604080518082018252601a81527f43727970746f2052616d204361736820436f696e20436861696e00000000000060208083019182528351808501909452600584527f4352434343000000000000000000000000000000000000000000000000000000908401528151919291600291620000909160039190620000c4565b508151620000a6906004906020850190620000c4565b506005805460ff191660ff9290921691909117905550620001699050565b828054600181600116156101000203166002900490600052602060002090601f016020900481019282601f106200010757805160ff191683800117855562000137565b8280016001018555821562000137579182015b82811115620001375782518255916020019190600101906200011a565b506200014592915062000149565b5090565b6200016691905b8082111562000145576000815560010162000150565b90565b61351b80620001796000396000f300608060405260043610620001265763ffffffff7c010000000000000000000000000000000000000000000000000000000060003504166306fdde0381146200012b578063095ea7b314620001bb57806312958f1c14620001f657806318160ddd146200020e5780631d9fe2d5146200023857806323b872dd1462000294578063313ce56714620002c15780633389cb9714620002ef5780633950935114620003895780636c2c239214620003b057806370a08231146200044a5780637b7ba5df146200046e57806386b234a414620004ca57806395d89b411462000526578063a457c2d7146200053e578063a9059cbb1462000565578063d99d8de5146200058c578063dc75f3fc14620005da578063dd62ed3e1462000636578063f1840d091462000660575b600080fd5b3480156200013857600080fd5b5062000143620006d8565b6040805160208082528351818301528351919283929083019185019080838360005b838110156200017f57818101518382015260200162000165565b50505050905090810190601f168015620001ad5780820380516001836020036101000a031916815260200191505b509250505060405180910390f35b348015620001c857600080fd5b50620001e2600160a060020a036004351660243562000773565b604080519115158252519081900360200190f35b3480156200020357600080fd5b5062000143620007f2565b3480156200021b57600080fd5b5062000226620008c6565b60408051918252519081900360200190f35b3480156200024557600080fd5b506040805160206004803580820135601f810184900484028501840190955284845262000226943694929360249392840191908190840183828082843750949750620008cc9650505050505050565b348015620002a157600080fd5b50620001e2600160a060020a03600435811690602435166044356200094d565b348015620002ce57600080fd5b50620002d9620009ef565b6040805160ff9092168252519081900360200190f35b348015620002fc57600080fd5b506040805160206004803580820135601f8101849004840285018401909552848452620001e294369492936024939284019190819084018382808284375050604080516020601f89358b018035918201839004830284018301909452808352979a999881019791965091820194509250829150840183828082843750949750620009f89650505050505050565b3480156200039657600080fd5b50620001e2600160a060020a036004351660243562000d83565b348015620003bd57600080fd5b506040805160206004803580820135601f81018490048402850184019095528484526200022694369492936024939284019190819084018382808284375050604080516020601f89358b018035918201839004830284018301909452808352979a99988101979196509182019450925082915084018382808284375094975062000e369650505050505050565b3480156200045757600080fd5b5062000226600160a060020a036004351662000f92565b3480156200047b57600080fd5b506040805160206004803580820135601f8101849004840285018401909552848452620001e294369492936024939284019190819084018382808284375094975062000fad9650505050505050565b348015620004d757600080fd5b506040805160206004803580820135601f8101849004840285018401909552848452620001e2943694929360249392840191908190840183828082843750949750620010e19650505050505050565b3480156200053357600080fd5b5062000143620013bf565b3480156200054b57600080fd5b50620001e2600160a060020a036004351660243562001423565b3480156200057257600080fd5b50620001e2600160a060020a036004351660243562001471565b6040805160206004803580820135601f8101849004840285018401909552848452620001e2943694929360249392840191908190840183828082843750949750620014899650505050505050565b348015620005e757600080fd5b506040805160206004803580820135601f8101849004840285018401909552848452620001439436949293602493928401919081908401838280828437509497506200174d9650505050505050565b3480156200064357600080fd5b5062000226600160a060020a036004358116906024351662001847565b3480156200066d57600080fd5b506040805160206004803580820135601f8101849004840285018401909552848452620006bc943694929360249392840191908190840183828082843750949750620018729650505050505050565b60408051600160a060020a039092168252519081900360200190f35b60038054604080516020601f6002600019610100600188161502019095169490940493840181900481028201810190925282815260609390929091830182828015620007685780601f106200073c5761010080835404028352916020019162000768565b820191906000526020600020905b8154815290600101906020018083116200074a57829003601f168201915b505050505090505b90565b6000600160a060020a03831615156200078b57600080fd5b336000818152600160209081526040808320600160a060020a03881680855290835292819020869055805186815290519293927f8c5be1e5ebec7d5bd14f71427d1e84f3dd0314c0f7b2291e5b200ac8c7c3b925929181900390910190a350600192915050565b336000908152600760205260409020546060906002600019610100600184161502019091160415156200085a575060408051808201909152600381527f4e2f410000000000000000000000000000000000000000000000000000000000602082015262000770565b3360009081526007602090815260409182902080548351601f600260001961010060018616150201909316929092049182018490048402810184019094528084529091830182828015620007685780601f106200073c5761010080835404028352916020019162000768565b60025490565b6000620009456008836040518082805190602001908083835b60208310620009065780518252601f199092019160209182019101620008e5565b51815160209384036101000a6000190180199092169116179052920194855250604051938490030190922054600160a060020a0316915062000f929050565b90505b919050565b600160a060020a03831660009081526001602090815260408083203384529091528120548211156200097e57600080fd5b600160a060020a0384166000908152600160209081526040808320338452909152902054620009b4908363ffffffff620018e516565b600160a060020a0385166000908152600160209081526040808320338452909152902055620009e5848484620018fd565b5060019392505050565b60055460ff1690565b60008060008060006009876040518082805190602001908083835b6020831062000a345780518252601f19909201916020918201910162000a13565b51815160209384036101000a60001901801990921691161790529201948552506040519384900381018420547f524f3889000000000000000000000000000000000000000000000000000000008552600485018281528b5160248701528b51600160a060020a039092169950899563524f388995508c9450909283926044909201919085019080838360005b8381101562000ada57818101518382015260200162000ac0565b50505050905090810190601f16801562000b085780820380516001836020036101000a031916815260200191505b5092505050602060405180830381600087803b15801562000b2857600080fd5b505af115801562000b3d573d6000803e3d6000fd5b505050506040513d602081101562000b5457600080fd5b505192508262000b643362000f92565b101562000b7057600080fd5b62000be86008886040518082805190602001908083835b6020831062000ba85780518252601f19909201916020918201910162000b87565b51815160209384036101000a6000190180199092169116179052920194855250604051938490030190922054600160a060020a0316915085905062001471565b91506001821515141562000d75576040517f59f5e0ce000000000000000000000000000000000000000000000000000000008152602060048201818152885160248401528851600160a060020a038816936359f5e0ce938b939283926044019185019080838360005b8381101562000c6b57818101518382015260200162000c51565b50505050905090810190601f16801562000c995780820380516001836020036101000a031916815260200191505b5092505050602060405180830381600087803b15801562000cb957600080fd5b505af115801562000cce573d6000803e3d6000fd5b505050506040513d602081101562000ce557600080fd5b5051905080151562000d755762000d6a6008886040518082805190602001908083835b6020831062000d295780518252601f19909201916020918201910162000d08565b51815160209384036101000a6000190180199092169116179052920194855250604051938490030190922054600160a060020a03169150339050856200094d565b506000945062000d79565b8194505b5050505092915050565b6000600160a060020a038316151562000d9b57600080fd5b336000908152600160209081526040808320600160a060020a038716845290915290205462000dd1908363ffffffff620019f516565b336000818152600160209081526040808320600160a060020a0389168085529083529281902085905580519485525191937f8c5be1e5ebec7d5bd14f71427d1e84f3dd0314c0f7b2291e5b200ac8c7c3b925929081900390910190a350600192915050565b60006009836040518082805190602001908083835b6020831062000e6c5780518252601f19909201916020918201910162000e4b565b51815160209384036101000a60001901801990921691161790529201948552506040519384900381018420547f524f388900000000000000000000000000000000000000000000000000000000855260048501828152875160248701528751600160a060020a039092169563524f38899550889450909283926044909201919085019080838360005b8381101562000f0f57818101518382015260200162000ef5565b50505050905090810190601f16801562000f3d5780820380516001836020036101000a031916815260200191505b5092505050602060405180830381600087803b15801562000f5d57600080fd5b505af115801562000f72573d6000803e3d6000fd5b505050506040513d602081101562000f8957600080fd5b50519392505050565b600160a060020a031660009081526020819052604090205490565b60006006826040518082805190602001908083835b6020831062000fe35780518252601f19909201916020918201910162000fc2565b51815160209384036101000a6000190180199092169116179052920194855250604051938490030190922054600160a060020a031615915062001027905057600080fd5b336006836040518082805190602001908083835b602083106200105c5780518252601f1990920191602091820191016200103b565b51815160209384036101000a600019018019909216911617905292019485525060408051948590038201909420805473ffffffffffffffffffffffffffffffffffffffff1916600160a060020a039690961695909517909455505033600090815260078352208351620010d29285019062001abe565b50620009483361012c62001a0f565b600080606033600160a060020a0316600a856040518082805190602001908083835b60208310620011245780518252601f19909201916020918201910162001103565b51815160209384036101000a6000190180199092169116179052920194855250604051938490030190922054600160a060020a03169290921491506200116b905057600080fd5b6009846040518082805190602001908083835b602083106200119f5780518252601f1990920191602091820191016200117e565b51815160209384036101000a600019018019909216911617905292019485525060408051948590039091018420547f793cd71e0000000000000000000000000000000000000000000000000000000085529051600160a060020a039091169363793cd71e9350600480820193506000929182900301818387803b1580156200122657600080fd5b505af11580156200123b573d6000803e3d6000fd5b505050506040513d6000823e601f3d908101601f1916820160409081528110156200126557600080fd5b8151602083018051919392830192916401000000008111156200128757600080fd5b820160208101848111156200129b57600080fd5b8151640100000000811182820187101715620012b657600080fd5b505092919050505080925081935050506200133f6008856040518082805190602001908083835b60208310620012fe5780518252601f199092019160209182019101620012dd565b51815160209384036101000a6000190180199092169116179052920194855250604051938490030190922054600160a060020a0316915033905084620018fd565b80600b856040518082805190602001908083835b60208310620013745780518252601f19909201916020918201910162001353565b51815160209384036101000a60001901801990921691161790529201948552506040519384900381019093208451620013b7959194919091019250905062001abe565b505050919050565b60048054604080516020601f6002600019610100600188161502019095169490940493840181900481028201810190925282815260609390929091830182828015620007685780601f106200073c5761010080835404028352916020019162000768565b6000600160a060020a03831615156200143b57600080fd5b336000908152600160209081526040808320600160a060020a038716845290915290205462000dd1908363ffffffff620018e516565b600062001480338484620018fd565b50600192915050565b6000806008836040518082805190602001908083835b60208310620014c05780518252601f1990920191602091820191016200149f565b51815160209384036101000a6000190180199092169116179052920194855250604051938490030190922054600160a060020a031615915062001504905057600080fd5b826200150f62001b43565b60208082528251818301528251829160408301919085019080838360005b83811015620015475781810151838201526020016200152d565b50505050905090810190601f168015620015755780820380516001836020036101000a031916815260200191505b5092505050604051809103906000f08015801562001597573d6000803e3d6000fd5b509050806009846040518082805190602001908083835b60208310620015cf5780518252601f199092019160209182019101620015ae565b51815160209384036101000a60001901801990921691161790529201948552506040519384900381018420805473ffffffffffffffffffffffffffffffffffffffff1916600160a060020a039690961695909517909455505084518392600892879290918291908401908083835b602083106200165e5780518252601f1990920191602091820191016200163d565b51815160209384036101000a60001901801990921691161790529201948552506040519384900381018420805473ffffffffffffffffffffffffffffffffffffffff1916600160a060020a039690961695909517909455505084513392600a92879290918291908401908083835b60208310620016ed5780518252601f199092019160209182019101620016cc565b51815160209384036101000a60001901801990921691161790529201948552506040519384900301909220805473ffffffffffffffffffffffffffffffffffffffff1916600160a060020a03949094169390931790925550919392505050565b6060600b826040518082805190602001908083835b60208310620017835780518252601f19909201916020918201910162001762565b518151600019602094850361010090810a820192831692199390931691909117909252949092019687526040805197889003820188208054601f60026001831615909802909501169590950492830182900482028801820190528187529294509250508301828280156200183b5780601f106200180f576101008083540402835291602001916200183b565b820191906000526020600020905b8154815290600101906020018083116200181d57829003601f168201915b50505050509050919050565b600160a060020a03918216600090815260016020908152604080832093909416825291909152205490565b60006008826040518082805190602001908083835b60208310620018a85780518252601f19909201916020918201910162001887565b51815160209384036101000a6000190180199092169116179052920194855250604051938490030190922054600160a060020a0316949350505050565b60008083831115620018f657600080fd5b5050900390565b600160a060020a0383166000908152602081905260409020548111156200192357600080fd5b600160a060020a03821615156200193957600080fd5b600160a060020a03831660009081526020819052604090205462001964908263ffffffff620018e516565b600160a060020a0380851660009081526020819052604080822093909355908416815220546200199b908263ffffffff620019f516565b600160a060020a038084166000818152602081815260409182902094909455805185815290519193928716927fddf252ad1be2c89b69c2b068fc378daa952ba7f163c4a11628f55a4df523b3ef92918290030190a3505050565b60008282018381101562001a0857600080fd5b9392505050565b600160a060020a038216151562001a2557600080fd5b60025462001a3a908263ffffffff620019f516565b600255600160a060020a03821660009081526020819052604090205462001a68908263ffffffff620019f516565b600160a060020a0383166000818152602081815260408083209490945583518581529351929391927fddf252ad1be2c89b69c2b068fc378daa952ba7f163c4a11628f55a4df523b3ef9281900390910190a35050565b828054600181600116156101000203166002900490600052602060002090601f016020900481019282601f1062001b0157805160ff191683800117855562001b31565b8280016001018555821562001b31579182015b8281111562001b3157825182559160200191906001019062001b14565b5062001b3f92915062001b54565b5090565b60405161197e8062001b7283390190565b6200077091905b8082111562001b3f576000815560010162001b5b560060806040523480156200001157600080fd5b506040516200197e3803806200197e8339810180604052620000379190810190620006be565b80516000906200004e9082906020850190620005bd565b506003620000a06040805190810160405280600781526020017f43757063616b65000000000000000000000000000000000000000000000000008152506200036e640100000000026401000000009004565b815460018181018455600093845260208085209092018390556040805160c0810182526007608082019081527f43757063616b650000000000000000000000000000000000000000000000000060a08301528152808401859052609681830152600a6060820152848652918352909320835180519395509092620001289284920190620005bd565b5060208281015160018301556040808401516002808501919091556060909401516003938401556000858152938252808420939093558251808401909352600683527f4f72616e676500000000000000000000000000000000000000000000000000009083015290620001a4906401000000006200036e810204565b815460018181018455600093845260208085209092018390556040805160c0810182526006608082019081527f4f72616e6765000000000000000000000000000000000000000000000000000060a08301528152808401859052603281830152600a60608201528486529183529093208351805193955090926200022c9284920190620005bd565b5060208281015160018301556040808401516002808501919091556060909401516003938401556000858152938252808420939093558251808401909352600883527f4d65617462616c6c0000000000000000000000000000000000000000000000009083015290620002a8906401000000006200036e810204565b815460018181018455600093845260208085209092018390556040805160c0810182526008608082019081527f4d65617462616c6c00000000000000000000000000000000000000000000000060a083015281528084018590526103e881830152600a6060820152848652918352909320835180519395509092620003319284920190620005bd565b5060208281015160018301556040808401516002808501919091556060909401516003909301929092556000938452919091528120555062000780565b60008181805b8251821015620005b55782517f410000000000000000000000000000000000000000000000000000000000000090849084908110620003af57fe5b9060200101517f010000000000000000000000000000000000000000000000000000000000000090047f010000000000000000000000000000000000000000000000000000000000000002600160f860020a0319161015801562000497575082517f5a00000000000000000000000000000000000000000000000000000000000000908490849081106200043f57fe5b9060200101517f010000000000000000000000000000000000000000000000000000000000000090047f010000000000000000000000000000000000000000000000000000000000000002600160f860020a03191611155b1562000567578282815181101515620004ac57fe5b9060200101517f010000000000000000000000000000000000000000000000000000000000000090047f0100000000000000000000000000000000000000000000000000000000000000027f010000000000000000000000000000000000000000000000000000000000000090046020017f01000000000000000000000000000000000000000000000000000000000000000283838151811015156200054e57fe5b906020010190600160f860020a031916908160001a9053505b82828151811015156200057657fe5b01602001517f01000000000000000000000000000000000000000000000000000000000000009081900481020493840193600190920191905062000374565b505050919050565b828054600181600116156101000203166002900490600052602060002090601f016020900481019282601f106200060057805160ff191683800117855562000630565b8280016001018555821562000630579182015b828111156200063057825182559160200191906001019062000613565b506200063e92915062000642565b5090565b6200065f91905b808211156200063e576000815560010162000649565b90565b6000601f820183136200067457600080fd5b81516200068b620006858262000725565b620006fe565b91508082526020830160208301858383011115620006a857600080fd5b620006b58382846200074d565b50505092915050565b600060208284031215620006d157600080fd5b81516001604060020a03811115620006e857600080fd5b620006f68482850162000662565b949350505050565b6040518181016001604060020a03811182821017156200071d57600080fd5b604052919050565b60006001604060020a038211156200073c57600080fd5b506020601f91909101601f19160190565b60005b838110156200076a57818101518382015260200162000750565b838111156200077a576000848401525b50505050565b6111ee80620007906000396000f3006080604052600436106100ae5763ffffffff7c0100000000000000000000000000000000000000000000000000000000600035041663043bc0b781146100b35780630b2a1cc9146100e9578063390493be1461010b578063524f38891461012057806359f5e0ce146101405780635d7f850c1461016d578063793cd71e146101825780637e2e8393146101a5578063d5e6c333146101d2578063df772ef0146101f4578063f7d85c0514610224575b600080fd5b3480156100bf57600080fd5b506100d36100ce366004610f08565b610244565b6040516100e091906110e8565b60405180910390f35b3480156100f557600080fd5b506100fe610269565b6040516100e09190611083565b34801561011757600080fd5b506100fe610426565b34801561012c57600080fd5b506100d361013b366004610f08565b6104b4565b34801561014c57600080fd5b5061016061015b366004610f08565b6104d9565b6040516100e0919061106f565b34801561017957600080fd5b506100fe610564565b34801561018e57600080fd5b50610197610683565b6040516100e09291906110f6565b3480156101b157600080fd5b506101c56101c0366004610fa9565b610735565b6040516100e091906110d7565b3480156101de57600080fd5b506101f26101ed366004610f45565b61080b565b005b34801561020057600080fd5b5061021461020f366004610fa9565b6108c7565b6040516100e09493929190611094565b34801561023057600080fd5b5061021461023f366004610f08565b610994565b60006002600061025384610a6f565b8152602001908152602001600020549050919050565b60608060005b600354811015610420576103598260408051908101604052806002815260200160f560020a61016102815250600160006003868154811015156102ae57fe5b600091825260208083209190910154835282810193909352604091820190208054825160026001831615610100026000190190921691909104601f81018590048502820185019093528281529290919083018282801561034f5780601f106103245761010080835404028352916020019161034f565b820191906000526020600020905b81548152906001019060200180831161033257829003601f168201915b5050505050610bb9565b91506103ba8260408051908101604052806002815260200160f560020a610161028152506103b56001600060038781548110151561039357fe5b9060005260206000200154815260200190815260200160002060020154610cbf565b610bb9565b91506104168260408051908101604052806002815260200160f560020a610161028152506103b5600160006003878154811015156103f457fe5b9060005260206000200154815260200190815260200160002060030154610cbf565b915060010161026f565b50919050565b6000805460408051602060026001851615610100026000190190941693909304601f810184900484028201840190925281815292918301828280156104ac5780601f10610481576101008083540402835291602001916104ac565b820191906000526020600020905b81548152906001019060200180831161048f57829003601f168201915b505050505081565b6000806104c083610a6f565b6000908152600160205260409020600201549392505050565b6000806104e583610a6f565b6000818152600160205260408120600301549192501061050457600080fd5b600081815260016020526040812060030154111561055b5760008181526001602081815260408084206003810180546000190190556002908101546004805490910190559091529091208054820190559150610420565b50600092915050565b60608060005b600354811015610420576105a98260408051908101604052806002815260200160f560020a61016102815250600160006003868154811015156102ae57fe5b91506106058260408051908101604052806002815260200160f560020a610161028152506103b5600160006003878154811015156105e357fe5b9060005260206000200154815260200190815260200160002060010154610cbf565b915061063f8260408051908101604052806002815260200160f560020a610161028152506103b56001600060038781548110151561039357fe5b91506106798260408051908101604052806002815260200160f560020a610161028152506103b5600160006003878154811015156103f457fe5b915060010161056a565b60045460608060005b60035481101561072e576106cb8260408051908101604052806002815260200160f560020a61016102815250600160006003868154811015156102ae57fe5b91506107248260408051908101604052806002815260200160f560020a610161028152506103b56002600060038781548110151561070557fe5b9060005260206000200154815260200190815260200160002054610cbf565b915060010161068c565b5091929050565b61073d610ddd565b6000828152600160208181526040928390208351815460029481161561010002600019011693909304601f8101839004909202830160a09081019094526080830182815292939092849290918491908401828280156107dd5780601f106107b2576101008083540402835291602001916107dd565b820191906000526020600020905b8154815290600101906020018083116107c057829003601f168201915b5050505050815260200160018201548152602001600282015481526020016003820154815250509050919050565b600061081684610a6f565b6040805160808101825286815260208082018490528183018790526060820186905260008481526001825292909220815180519495509193909261085e928492910190610e06565b5060208281015160018084019190915560408085015160028086019190915560609095015160039485015583549182019093557fc2575a0e9e593c00f959f8c92f12db2869c3395a3b0502d05e2516446f71f85b01849055600093845291909152812055505050565b600081815260016020818152604080842080548251600295821615610100026000190190911694909404601f81018490048402850184019092528184526060949384938493919291908301828280156109615780601f1061093657610100808354040283529160200191610961565b820191906000526020600020905b81548152906001019060200180831161094457829003601f168201915b50505060009788525050600160208190526040909620958601546002870154600390970154919790969550909350915050565b60606000806000806109a586610a6f565b60008181526001602081815260409283902080548451600294821615610100026000190190911693909304601f810183900483028401830190945283835293945090929190830182828015610a3b5780601f10610a1057610100808354040283529160200191610a3b565b820191906000526020600020905b815481529060010190602001808311610a1e57829003601f168201915b5050506000938452505060016020819052604090922091820154600283015460039093015491989097509195509350915050565b60008181805b8251821015610bb15782517f410000000000000000000000000000000000000000000000000000000000000090849084908110610aae57fe5b90602001015160f860020a900460f860020a02600160f860020a03191610158015610b24575082517f5a0000000000000000000000000000000000000000000000000000000000000090849084908110610b0457fe5b90602001015160f860020a900460f860020a02600160f860020a03191611155b15610b81578282815181101515610b3757fe5b90602001015160f860020a900460f860020a0260f860020a900460200160f860020a028383815181101515610b6857fe5b906020010190600160f860020a031916908160001a9053505b8282815181101515610b8f57fe5b016020015160f860020a90819004810204938401936001909201919050610a75565b505050919050565b60608383836040516020018084805190602001908083835b60208310610bf05780518252601f199092019160209182019101610bd1565b51815160209384036101000a600019018019909216911617905286519190930192860191508083835b60208310610c385780518252601f199092019160209182019101610c19565b51815160209384036101000a600019018019909216911617905285519190930192850191508083835b60208310610c805780518252601f199092019160209182019101610c61565b6001836020036101000a038019825116818451168082178552505050505050905001935050505060405160208183030381529060405290509392505050565b60408051604e8082526080820190925260609190829060009081908390829086602082016109c080388339019050509450600093505b8715610d40578451600a808a04996001870196919006945060f860020a6030860102918791908110610d2357fe5b906020010190600160f860020a031916908160001a905350610cf5565b836040519080825280601f01601f191660200182016040528015610d6e578160200160208202803883390190505b509150600090505b83811015610dd25784816001860303815181101515610d9157fe5b90602001015160f860020a900460f860020a028282815181101515610db257fe5b906020010190600160f860020a031916908160001a905350600101610d76565b509695505050505050565b608060405190810160405280606081526020016000815260200160008152602001600081525090565b828054600181600116156101000203166002900490600052602060002090601f016020900481019282601f10610e4757805160ff1916838001178555610e74565b82800160010185558215610e74579182015b82811115610e74578251825591602001919060010190610e59565b50610e80929150610e84565b5090565b610e9e91905b80821115610e805760008155600101610e8a565b90565b6000601f82018313610eb257600080fd5b8135610ec5610ec08261113d565b611116565b91508082526020830160208301858383011115610ee157600080fd5b610eec83828461116e565b50505092915050565b6000610f018235610e9e565b9392505050565b600060208284031215610f1a57600080fd5b813567ffffffffffffffff811115610f3157600080fd5b610f3d84828501610ea1565b949350505050565b600080600060608486031215610f5a57600080fd5b833567ffffffffffffffff811115610f7157600080fd5b610f7d86828701610ea1565b9350506020610f8e86828701610ef5565b9250506040610f9f86828701610ef5565b9150509250925092565b600060208284031215610fbb57600080fd5b6000610f3d8484610ef5565b610fd081611169565b82525050565b6000610fe182611165565b808452610ff581602086016020860161117a565b610ffe816111aa565b9093016020019392505050565b80516080808452600091908401906110238282610fd6565b91505060208301516110386020860182611066565b50604083015161104b6040860182611066565b50606083015161105e6060860182611066565b509392505050565b610fd081610e9e565b6020810161107d8284610fc7565b92915050565b60208082528101610f018184610fd6565b608080825281016110a58187610fd6565b90506110b46020830186611066565b6110c16040830185611066565b6110ce6060830184611066565b95945050505050565b60208082528101610f01818461100b565b6020810161107d8284611066565b604081016111048285611066565b8181036020830152610f3d8184610fd6565b60405181810167ffffffffffffffff8111828210171561113557600080fd5b604052919050565b600067ffffffffffffffff82111561115457600080fd5b506020601f91909101601f19160190565b5190565b151590565b82818337506000910152565b60005b8381101561119557818101518382015260200161117d565b838111156111a4576000848401525b50505050565b601f01601f1916905600a265627a7a72305820761b3970ee6f66c729ccdbc369d2e37de32b4ffc2154f60e7ca9c2b3f4f69dda6c6578706572696d656e74616cf50037a165627a7a7230582056cbbbafc9c58f8d49f75b3a45faac9f74f179bd30cdc7bcf4c5ab604bfdf9e50029",
  "source": "pragma solidity ^0.4.25;\n\nimport \"openzeppelin-solidity/contracts/token/ERC20/ERC20.sol\";\nimport \"openzeppelin-solidity/contracts/token/ERC20/ERC20Detailed.sol\";\nimport \"./Register.sol\";\n\n//This will be the CryptoRamCashCoinChain token contract\ncontract CRCCC is ERC20, ERC20Detailed{\n\n    //This mapping holds all of the student accounts within the system\n    mapping (string => address) studentAccounts;\n    mapping (address => string) studentNames;\n\n    //Allows us to get the register instance via name\n    mapping (string => address) RegisterAddress;\n\n    //This is the address for the register for when a transaction is happening with a student\n    mapping (string => Register) RegisterAccounts;\n\n    //This is the account of the manager that owns the register. This is the account where all the crccc will\n    //go to when the register closes for the day\n    mapping (string => address) RegisterOwner;\n\n    //This will hold the string representation of the end of day reports for a register once it has been closed.\n    mapping (string => string) RegisterReports;\n\n    constructor() ERC20Detailed(\"Crypto Ram Cash Coin Chain\", \"CRCCC\", 2) public{ }\n\n    //This will create a new student to the token contract and give them a balance of 300 at the start\n    function registerNewStudent(string name) public returns(bool){\n\n        //Ensures that the student hasn't been previously registered with the contract\n        require(studentAccounts[name] == 0x0);\n\n        studentAccounts[name] = msg.sender;\n        studentNames[msg.sender] = name;\n        _mint(msg.sender,300);\n\n    }\n\n    //This will allow a manager to spawn a new register by providing the name of the venue/vendor name\n    function spawnNewRegister(string vendorID) public payable returns(bool){\n\n        //Ensure that the register doesnt already exist\n        require(RegisterAddress[vendorID] == 0x0);\n\n        Register new_reg = new Register(vendorID);\n\n        RegisterAccounts[vendorID] = new_reg;\n        RegisterAddress[vendorID] = address(new_reg);\n        RegisterOwner[vendorID] = msg.sender;\n\n    }\n\n    //This will display to the user what the price is for a given item at a store\n    function viewPrice(string vendorId, string itemName) public view returns(uint256 price){\n        return RegisterAccounts[vendorId].getPrice(itemName);\n    }\n\n    //Assumption is that only one item can be purchased at a time\n    function purchaseItem(string vendorID, string itemName) public returns(bool){\n\n        //Select the register that the student is looking to make a purchase at\n        Register register = RegisterAccounts[vendorID];\n\n        //Obtain the price of the item that the student wants to purchase\n        uint256 price = register.getPrice(itemName);\n\n        //assert that the user has the amount of CRCCC that the vendor calls for for that item\n        require(balanceOf(msg.sender) >= price);\n\n        //Initiate a transfer from the students account and transfer the coins to the registers studentAccounts\n        bool result = transfer(RegisterAddress[vendorID], price);\n\n        //determine the success of the transfer => this could fail if the student does not have enough money\n        if(result == true){\n\n            bool  regTransaction = register.purchase(itemName);\n\n            //This is in the event where the vendor does not have enough of the item to instock\n            //to sell to the customer\n            if( regTransaction == false){\n\n                transferFrom(RegisterAddress[vendorID],msg.sender,price);\n                return false;\n            }\n        }\n        //based upon success update the register and its inventory\n        return result;\n    }\n\n    //This function is responsible for:\n    //  * transferring the tokens from the register to the managers account\n    //  * populating the register report into the mapping for that register\n    function closeRegister(string vendorID) public returns(bool){\n\n        //This function can only be performed by the manager of the register\n        require(RegisterOwner[vendorID] == msg.sender);\n\n        uint256 reg_balance;\n        string memory reg_report;\n\n        (reg_balance, reg_report) = RegisterAccounts[vendorID].cashOut();\n\n        _transfer(RegisterAddress[vendorID], msg.sender, reg_balance);\n        RegisterReports[vendorID] = reg_report;\n\n    }\n\n    function viewRegisterReport(string vendorID) public view returns(string) {\n        return RegisterReports[vendorID];\n    }\n\n    function getUserName() view returns(string){\n        if (bytes(studentNames[msg.sender]).length == 0) return \"N/A\";\n        return studentNames[msg.sender];\n    }\n\n    //Debugging functions used in mocha tests\n\n    function viewRegisterAddress(string vendorID) public view returns(address){\n        return RegisterAddress[vendorID];\n    }\n\n    function viewRegisterBalance(string vendorID) public view returns(uint256){\n        return balanceOf(RegisterAddress[vendorID]);\n    }\n\n\n}\n",
  "sourcePath": "/deejay/Documents/school/cs481/term/main/CRCCC/contracts/CRCCC.sol",
  "compiler": {
    "name": "solc",
    "version": "0.4.25+commit.59dbf8f1.Emscripten.clang"
  },
  "schemaVersion": "3.0.9",
  "updatedAt": "2019-05-03T19:30:17.446Z",
  "devdoc": {
    "methods": {
      "allowance(address,address)": {
        "details": "Function to check the amount of tokens that an owner allowed to a spender.",
        "params": {
          "owner": "address The address which owns the funds.",
          "spender": "address The address which will spend the funds."
        },
        "return": "A uint256 specifying the amount of tokens still available for the spender."
      },
      "approve(address,uint256)": {
        "details": "Approve the passed address to spend the specified amount of tokens on behalf of msg.sender. Beware that changing an allowance with this method brings the risk that someone may use both the old and the new allowance by unfortunate transaction ordering. One possible solution to mitigate this race condition is to first reduce the spender's allowance to 0 and set the desired value afterwards: https://github.com/ethereum/EIPs/issues/20#issuecomment-263524729",
        "params": {
          "spender": "The address which will spend the funds.",
          "value": "The amount of tokens to be spent."
        }
      },
      "balanceOf(address)": {
        "details": "Gets the balance of the specified address.",
        "params": {
          "owner": "The address to query the balance of."
        },
        "return": "An uint256 representing the amount owned by the passed address."
      },
      "decimals()": {
        "return": "the number of decimals of the token."
      },
      "decreaseAllowance(address,uint256)": {
        "details": "Decrease the amount of tokens that an owner allowed to a spender. approve should be called when allowed_[_spender] == 0. To decrement allowed value is better to use this function to avoid 2 calls (and wait until the first transaction is mined) From MonolithDAO Token.sol",
        "params": {
          "spender": "The address which will spend the funds.",
          "subtractedValue": "The amount of tokens to decrease the allowance by."
        }
      },
      "increaseAllowance(address,uint256)": {
        "details": "Increase the amount of tokens that an owner allowed to a spender. approve should be called when allowed_[_spender] == 0. To increment allowed value is better to use this function to avoid 2 calls (and wait until the first transaction is mined) From MonolithDAO Token.sol",
        "params": {
          "addedValue": "The amount of tokens to increase the allowance by.",
          "spender": "The address which will spend the funds."
        }
      },
      "name()": {
        "return": "the name of the token."
      },
      "symbol()": {
        "return": "the symbol of the token."
      },
      "totalSupply()": {
        "details": "Total number of tokens in existence"
      },
      "transfer(address,uint256)": {
        "details": "Transfer token for a specified address",
        "params": {
          "to": "The address to transfer to.",
          "value": "The amount to be transferred."
        }
      },
      "transferFrom(address,address,uint256)": {
        "details": "Transfer tokens from one address to another",
        "params": {
          "from": "address The address which you want to send tokens from",
          "to": "address The address which you want to transfer to",
          "value": "uint256 the amount of tokens to be transferred"
        }
      }
    }
  },
  "userdoc": {
    "methods": {}
  }
}